:020000041000EA
:1000000000000220351C0010C1170010731C0010E6
:10001000751C0010771C0010791C001000000000F7
:100020000000000000000000000000007B1C001029
:100030007D1C0010000000007F1C0010811C0010BF
:10004000851C0010871C0010891C00108B1C0010E0
:100050008D1C00108F1C0010911C0010931C0010B0
:10006000951C0010971C0010991C00109B1C001080
:100070009D1C00109F1C0010A11C0010A31C001050
:10008000A51C0010A71C0010A91C0010AB1C001020
:10009000AD1C0010AF1C0010B11C0010B31C0010F0
:1000A000451700104D170010B91C0010BB1C0010A4
:1000B000BD1C0010BF1C0010C11C0010C31C001090
:1000C000C51C0010C71C0010C91C0010CB1C001060
:1000D000CD1C0010CF1C0010D11C0010D31C001030
:1000E000D51C0010D71C0010D91C0010DB1C001000
:1000F000DD1C0010DF1C0010E11C0010E31C0010D0
:10010000E51C0010E71C0010E91C0010EB1C00109F
:10011000ED1C0010C10C0010F11C0010F31C0010AD
:10012000F51C0010F71C0010F91C0010FB1C00103F
:10013000FD1C0010FF1C0010011D0010031D00100D
:10014000051D0010071D0010091D00100B1D0010DB
:100150000D1D00100F1D0010111D0010131D0010AB
:10016000151D0010171D0010191D00101B1D00107B
:100170001D1D00101F1D0010211D0010231D00104B
:10018000251D0010271D0010291D00102B1D00101B
:100190002D1D00102F1D0010311D0010331D0010EB
:1001A000351D0010371D0010391D00103B1D0010BB
:1001B0003D1D00103F1D0010411D0010431D00108B
:1001C000451D0010471D0010491D00104B1D00105B
:1001D0004D1D00104F1D0010511D0010531D00102B
:1001E00010B5054C237833B9044B13B10448AFF371
:1001F00000800123237010BD000C002000000000CF
:10020000C87B031008B5034B1BB103490348AFF388
:10021000008008BD00000000040C0020C87B031013
:100220000E480F49026808B50E4B1A4002600A6872
:1002300000F500001A400A60026801F500011A404A
:1002400002600A6813400B60012001F06BFB064856
:1002500003F088F9054B186008BD00BF000010507E
:1002600000005050FEEFFFFF00000140240C002072
:10027000034A136823F0010301201360704700BF95
:1002800000001050104B30B5104D19464FF0010EC4
:1002900041F0010105F1080C81F800E06D686A1E6B
:1002A00085B16146013A51F8044B1C60501C03F1C2
:1002B0000403F7D10CEB850529680B460029E7D12B
:1002C000012030BD6546F7E700001850ECB500107E
:1002D000F0B40E480E4E0F4D0F4C104F104940F227
:1002E0000E4208234FF0000CC7F800C03160726066
:1002F000B36029606A60AB60016042608360216026
:1003000001206260A360F0BC704700BF0000905005
:1003100000001050000050500000D050001000505D
:1003200008001000F449F54A2DE9F04F4FF400633E
:100330004FF07F080120C1F810804EF62035C1F83B
:1003400010334FF40053C1F81034ED4FC1F890044E
:100350004FF4CF6BC1F890554FF4885A4FF41035D5
:10036000C1F8107AC1F810B6C1F810A1C1F89057C1
:100370004FF0FF35C1F810574FF40065C2F81080F8
:10038000C2F810534FF40055C2F810544FF43269BC
:100390004FF41035DB4BC2F89004C2F89095C2F8C8
:1003A000107AC2F810B6C2F810A1C2F890574FF0F8
:1003B000FF35C2F810574FF40065C3F81080C3F83A
:1003C00010534FF40055C3F810544FF41035CE4C71
:1003D000C3F89004C3F89095C3F8107AC3F810B628
:1003E000C3F810A1C3F890574FF0FF35C3F810576A
:1003F0004FF40065C4F81080C4F810534FF4005552
:10040000C4F810544FF41035C4F89004C4F8909513
:10041000C4F8107AC4F810B6C4F810A1C4F8905704
:100420004FF0FF35C4F810574FF40055C1F8148051
:10043000C1F814544FF40065C1F89404C1F8145580
:100440004EF620354FF4985CC1F894554FF4083EB1
:10045000AE4DA7F500574FF0FF36C1F8147AC1F83A
:100460001456C1F814C1C1F894E7C1F814674FF4E9
:100470000056C2F81480C2F814644FF40066C2F843
:100480009404C2F814654FF0FF36C2F89495C2F890
:10049000147AC2F81456C2F814C1C2F894E7C2F82C
:1004A00014674FF40056C3F81480C3F814644FF473
:1004B0000066C3F89404C3F814654FF0FF36C3F820
:1004C0009495C3F8147AC3F81456C3F814C1C3F84A
:1004D00094E7C3F814674FF40056C4F81480C4F8C6
:1004E00014644FF40066C4F89404C4F81465C4F8A6
:1004F0009495C4F8147AC4F814564FF00F15C4F844
:1005000014C1C4F894E7C4F81457814D8D614FF4B9
:100510000055C1F89801C1F89802C1F81863C1F8F4
:10052000185446F6A035C1F898557A4D7A4FC1F85F
:10053000187A2E46C1F818564FF0FF35C1F818C189
:10054000C1F81857724D95614FF40065C2F89801D3
:10055000C2F89802C2F818534FF40055C2F8185464
:100560004FF43A65C2F898554FF0FF35C2F8187A43
:10057000C2F81866C2F818C1C2F81857644D9D61D8
:100580004FF40065C3F89801C3F89802C3F81853F4
:100590004FF40055C3F818544FF43A65C3F8985512
:1005A0004FF0FF35C3F8187AC3F81866C3F818C1BE
:1005B000C3F81857564DA5614FF40065C4F898016B
:1005C000C4F89802C4F818534FF40055C4F81854EE
:1005D0004FF43A65C4F898554FF03E0A4FF4005571
:1005E000C4F8187AC4F81866C4F818C1C1F81CA079
:1005F000C1F81C544FF40065C1F81C554EF6203567
:10060000C1F89C554FF4BC35C1F81C5A4FF0FF3669
:10061000424DC1F81C56C1F81CC1C1F89CE7C1F895
:100620001C674FF40056C2F81CA0C2F81C644FF4BB
:100630000066C2F81C654FF4BC374FF0FF36C2F8B5
:100640009C95C2F81C7AC2F81C56C2F81CC1C2F8AC
:100650009CE7C2F81C674FF40056C3F81CA0C3F80F
:100660001C644FF40066C3F81C654FF0FF36C3F8F6
:100670009C95C3F81C7AC3F81C56C3F81CC1C3F878
:100680009CE7C3F81C674FF40056C4F81CA0C4F8DC
:100690001C644FF40066C4F81C65C4F89C95C4F84B
:1006A0001C7AC4F81C564FF0FF35C4F81CC1C4F8BE
:1006B0009CE7C4F81C571A4D0D62C1F8A001C1F89F
:1006C000A002C1F820634FF40056C1F82064154F12
:1006D0004FF4FC384FF0FF3646F6A03AC1F8A0A51B
:1006E000C1F8208AC1F82076C1F820C1C1F8A0E77E
:1006F000C1F8206718E000BF000010500000505003
:1007000011980100000090500000D05038084002BD
:100710007F000100380C400801F80100D80D600C82
:100720003E000100D80FE00D15624FF40065C2F8DD
:10073000A001C2F8A002C2F820534FF40055C2F83D
:1007400020544FF43A65C2F8A055EF4DC2F8208A04
:10075000C2F82076C2F820C1C2F8A0E7C2F820672C
:100760001D622E464FF40065C3F8A001C3F8A00235
:10077000C3F820534FF40055C3F820544FF43A65A2
:10078000C3F8A0554FF0FF35C3F8208AC3F8207690
:10079000C3F820C1C3F8A0E7C3F820574FF40065A1
:1007A0002662C4F8A001C4F8A002C4F820534FF494
:1007B0000055C4F820544FF43A65C4F8A0551D25DF
:1007C000C4F8208AC4F82076C4F820C1C4F8A0E791
:1007D0004D624FF40055C1F824544FF40065C1F840
:1007E000A404C1F824554EF62035C1F8A455C74DD0
:1007F000C1F8245A07F110772E4607F550774FF0CD
:10080000FF35C1F82476C1F824C1C1F8A4E7C1F8C6
:1008100024571D2555624FF40055C2F824544FF457
:100820000065C2F8A404C2F824554FF0FF35C2F8A1
:10083000A495C2F8246AC2F82476C2F824C1C2F88A
:10084000A4E7C2F824571D255D624FF40055C3F894
:1008500024544FF40065C3F8A404C3F824554FF0A2
:10086000FF35C3F8A495C3F8246AC3F82476C3F807
:1008700024C1C3F8A4E7C3F824571D2565624FF4CB
:100880000055C4F824544FF40065C4F8A404C4F817
:1008900024554FF0FF35C4F8A495C4F8246AC4F871
:1008A00024764FF40066C4F824C14FF40057C4F80E
:1008B000A4E7C4F82457964D8D6246F6A028C1F8E7
:1008C000A801C1F8A802C1F82863C1F82874914FA3
:1008D000C1F8A804C1F8A885C1F8287A8E4FC1F8DC
:1008E00028763E464FF0FF37C1F828C1C1F8287777
:1008F0004FF400679562C2F8A801C2F8A802C2F8D6
:1009000028734FF40057C2F828744FF42A68814FB7
:10091000C2F8A804C2F8A885C2F8287A4FF0FF37B9
:10092000C2F82866C2F828C1C2F828774FF40067D9
:100930009D62C3F8A801C3F8A802C3F828734FF456
:100940000057C3F82874734FC3F8A804C3F8A885E8
:10095000C3F8287A4FF0FF37C3F82866C3F828C1D8
:10096000C3F82877A5624FF40065C4F8A801694F61
:10097000C4F8A802C4F828534FF40055C4F828540A
:10098000C4F8A804654DC4F8A885C4F8287A4FF4C3
:100990000057C4F82866C4F828C14FF40066CD6239
:1009A0004EF6A03CC1F8AC01C1F8AC02C1F82C7401
:1009B0005B4FC1F82C65C1F8ACC5C1F82C7A594F12
:1009C000C1F82C763E464FF4B05C4FF0FF37C1F8CB
:1009D0002CC1C1F8ACE7C1F82C774FF40057D562B1
:1009E000C2F8AC01C2F8AC02C2F82C744FF4006734
:1009F000C2F82C754FF43A6C494FC2F8ACC5C2F836
:100A00002C7A4FF4B05C4FF0FF37C2F82C66C2F876
:100A10002CC1C2F8ACE7C2F82C774FF40057DD6266
:100A2000C3F8AC01C3F8AC02C3F82C744FF40067F0
:100A3000C3F82C754FF43A6C394FC3F8ACC5C3F802
:100A40002C7A4FF4B05C4FF0FF37C3F82C66C3F834
:100A50002CC1C3F8ACE7C3F82C77E5624FF400551E
:100A6000C4F8AC01C4F8AC02C4F82C544FF40065CF
:100A7000C4F82C554FF43A65C4F8AC55284FC4F867
:100A80002C7A4FF00F15C4F82C66C4F82CC1C4F8AA
:100A9000ACE7C4F82C574FF40065C1F830534FF45D
:100AA0000055C1F8B00309F5EF39C1F830544AF2E6
:100AB0000305C1F8B0954FF4807BC1F8305A4FF070
:100AC000FF37194DC1F83056C1F830B1C1F8307751
:100AD0004FF40061C2F830134FF40051C2F8B00374
:100AE000124FC2F830144AF20301C2F8B075C2F8CE
:100AF000301AC2F8305629464FF0FF35C2F830B1EF
:100B0000C2F8305714E000BF3E0001001078010029
:100B10001D00010011980100981920130F00010019
:100B200001F80100E810F00CF86860662009010087
:100B30004FF40062C3F830234FF40052C3F8B003FF
:100B4000C3F830244AF20302C3F8B075C3F8302A60
:100B5000C3F830160A464FF0FF31C3F830B1C3F87E
:100B600030174FF40063C4F830334FF40053C4F827
:100B7000B003C4F830344AF20303C4F8B075C4F8C3
:100B8000303AC4F83026C4F830B1C4F83017BDE8A4
:100B9000F08F00BFF8B50B490B4A0C4C0C4E0D48BA
:100BA0000D4B0E4D00273760256003600B600C482D
:100BB000136002F0D5FC012000F094FE094B236085
:100BC0000120F8BD000090500000D05000001050EF
:100BD000240C0020000050500908100008081000E4
:100BE00000000140090010001A4B1A6802605A68A0
:100BF00042609A688260DA68C26003F500431A684E
:100C000002615A6842619A688261DA68C26103F5DA
:100C100000431A6802625A6842629A688262DB681C
:100C20000D4AC36213680363536843639368836325
:100C3000D2680A4BC2631A6802645A6842649A68AE
:100C40008264DA68C26403F500431B68036501200F
:100C5000704700BF0020405000A04150002080504D
:100C60000C4B0F2210B5DA6000245A601A604FF066
:100C700080429C60DC60936923F470330343194322
:100C80009161192001F028FA0349652001F0DAF991
:100C9000012010BD005800402102001010B584B0A2
:100CA0000346012401A8CDE90131039401F010FCB1
:100CB000DDE9010101F040FD204604B010BD00BF98
:100CC00008B5054B01221A7003F0F8FA034A1368BD
:100CD00003F5BE73136008BD2A0C00200400002039
:100CE000094B4FF48042C3F880210146C3F88020AD
:100CF000BFF34F8FBFF36F8F202083F80E031A606E
:100D00000248022203F0D8B800E100E000200440CD
:100D100030B52048204D89B004F036F81F4B2049EB
:100D2000204A47F65C70002418801F4B0C6014604A
:100D300021464FF4807228461C8003F065FF1B4B50
:100D40001B4A01934FF400502023ADF80E000221FE
:100D50004FF47A508DF80A30ADF8084002F0E2F80E
:100D60004023024601A8CDE90444CDE90653ADF87D
:100D70000C2002F08DF820B101460E4803F0A2FFCE
:100D8000FEE7042002F0C0F802F0B2F862B609B043
:100D900030BD00BFF06F03102C0C00201C0C002095
:100DA000C48D0020C88D0020C08D002000020200EC
:100DB0000080BB00087003102DE9F04196B090460A
:100DC0000646542201A81F4603F084FE0021EC468B
:100DD0004FF0FF304FF0004E0D465CF8044F744565
:100DE00003DD36F9115008B2A64601311529F4D1B8
:100DF00007EE905ADFED166A9FED167AA8F800000C
:100E0000F8EEE77A67EEA67A67EE877A17EE900A31
:100E100009F0EAFE104B114A04460D46B2F90020D3
:100E2000B3F900100E48C7E9004503F04BFF06A3D5
:100E3000D3E90023D7E900010AF0BEF9003818BF52
:100E4000012016B0BDE8F0810000000000C056404F
:100E50000000C84200000038200C00201E0C0020BA
:100E60002070031008B5024803F08EFFFEE700BFB4
:100E700038700310F8B5224C224F06460546294625
:100E800020464FF4806204F5004403F023FEBC4288
:100E900005F58065F3D11C4F06F580554FF0A14450
:100EA000294620464FF4806204F5004403F012FE08
:100EB000BC4205F58065F3D1144C154F06F500557D
:100EC000294620464FF4806204F5004403F002FEF8
:100ED000BC4205F58065F3D10E4D4FF440544FF000
:100EE000A243311918464FF4806203F0F3FD00F578
:100EF000004304F58064AB42A4B2F2D10120F8BDF6
:100F00000000405000004250000082500000C050DD
:100F10000000C250000002512DE9F04F83B0BDF82F
:100F200030700093002A5ED0DFF8CC80DFF8CC90E0
:100F30002F4BB8F800501B880446B9F80000019008
:100F40007E0804EB020A4FF0000B9E428CBF4FF06C
:100F5000000C4FF0010CB3FBF6F00CEB450C06FB5C
:100F600010301FFA8CFCC0F38D0003F0030E0CEB65
:100F700000200EEB8000013380B29BB214F801CB4D
:100F800001F800C0BB4204D30135ADB24FF0010BF4
:100F900000235445D9D116490B80019B1A4492B2C3
:100FA000A9F80020BBF1000F01D0A8F80050009B69
:100FB000934210D8DFF84080B8F80030BB420ED121
:100FC0000B4A00230120A9F80030A8F80030138054
:100FD00003B0BDE8F08F002003B0BDE8F08F0548F6
:100FE00003F0D2FEECE7DFF81490B9F80020DEE75A
:100FF000280C002048700310B48D0020B88D00200C
:1010000030B4164B164DB3F900302A68154C02FB6C
:1010100003F3B4F9001003F5804343F3CF33411ACF
:101020000B44B3F5004F024608DB0F4947F6FF704B
:10103000086003462B60228030BC704713F5004FD8
:1010400007DA0A480849228003462B60086030BC52
:101050007047054918B20B60ECE700BF1C0C00207C
:10106000C88D0020C08D0020C48D00200080FFFFAF
:101070002DE9F84F364B374F00221A703B6B1B0E91
:101080008146002B59D0344E344DB6F800B0DFF80D
:10109000E08003F1FF3A42E0386C40F38F30FFF715
:1010A000AFFF2B6842F20F72591C9342296004462D
:1010B00032D9012000F016FC294A2A491388B6F8D3
:1010C00000B0002CACBF1B191B1B9BB21380264A1F
:1010D000D8F80030B2F90000002CB8BF3F3444F318
:1010E0008714A042CC5421B2B8BF11801F4AB2F974
:1010F000000001338842C8BF11805A420BF1010B36
:10110000C2F30D02C3F30D031FFA8BFB58BF53420A
:10111000A6F800B0C8F80030BAF1010A10D3BBF14C
:101120007F0FB9D90E4A13880021DB093180A9F855
:10113000003011800120BDE8F88F074EB6F800B0EE
:10114000BBF17F0FEED80020A9F80000BDE8F88FB2
:101150002A0C002000000640220C00202C0D00204C
:10116000B68D0020340D00201E0C0020200C002025
:10117000300D0020000000002DE9F04F2DED028B16
:10118000ABB04FF000085648ADF8108000F020FFDB
:10119000544802F02BF8042000F0C4FF042001F0B2
:1011A0003BF84FF080420125D36823F48033D360AD
:1011B00000F00AFE012000F005FB4FF4E130FFF7DC
:1011C0008FFD4FF480314046FFF74AFD202146480D
:1011D000FFF764FD4549464803F074FD454803F0B8
:1011E000D3FD4FF480424146434803F00DFD80217A
:1011F000424803F067FD4FF48041414803F062FD2F
:10120000FFF766F8FFF73EF8FFF78CF805AA012113
:101210004FF4BE7003F058F8059B099340468DF8D3
:10122000205003F02FF808A803F042F801F0F8FF6F
:10123000344B4FF400125A60192000F02BFFFFF7D7
:1012400067FD3148314EDFF8DCA0DFF8DCB000F09C
:10125000BFFE2F4803F098FD9FED1F8B03F022F88F
:10126000C14647464446337803F0FF02EBB104A879
:10127000FFF7FEFE0028F6D08034B4F5706FF2D38D
:10128000012D15D0022D51D0002000F09FFB002829
:10129000E9D0204803F078FD012000F043FB1E4810
:1012A0004A46214603F00EFDFEE7ADF81020DAE7CE
:1012B000BDF81030BAF800209A42E5D8174A1380DA
:1012C000174B07F570671B68CBF80030BFB20225DB
:1012D000C9E700BFAFF3008000000000000000007D
:1012E000400D030000A00240000408405C700310A1
:1012F0006C700310A0700310B44D0020B470031084
:10130000C470031000E100E080841E002A0C00205D
:10131000D87003108072031088720310BA8D0020F9
:10132000300D002000000020BC8D0020B74BBDF820
:1013300010201B8880379A42BFB280F0DF8041F2D4
:1013400054539F4240F2DD8008F101081FFA88F8EB
:10135000B8F1140F00F24A81B7F5804F94D3AC4B2B
:10136000DBF800101B6801F54455ED1A6A42C2F320
:101370000D02C5F30D0558BF5542BAF80020019281
:10138000A44A4FF6FF7012880092ADF812002A4668
:101390008027A1488DED068B03F094FC3A4600218E
:1013A0000AA803F031FCDBF800300097B3F5706F4A
:1013B000C0F2AF80994A9A49A3F57063D0184FF4F0
:1013C00080434FF47062FFF7A7FD002840F0BC8017
:1013D000DBF80000A84280F2BF80904B90492A1AA7
:1013E00018448023009392B24FF48043FFF794FD9A
:1013F000002840F0EB80DFF82882802700974FF428
:101400008043802241460AA8FFF786FD0028F5D0D8
:1014100009F10109012805461FFA89F940F0F08019
:101420004A4621467F4803F04DFC192000F054FE47
:101430007B48FFF71FFD002800F01A81FFF7AAFB89
:10144000002800F01A81784F3B681BB930BF3B6819
:10145000002BFBD07548FFF7C7FBFEF709FF1920EB
:1014600000F018FE0DF10F0339686F4A704802F062
:101470007BF870484A46214603F024FC9DF80F3063
:10148000022B00F09C80032B00F09380002B00F0D7
:1014900089803968684803F015FC684A634815215B
:1014A00000F0F4F86149654806AB0DF11202FFF750
:1014B00083FC0746624803F067FC2FB3BDF91210A6
:1014C000142921D05F4B604801EB810103EB4101FE
:1014D000DDE9062303F0F6FB5C4803F055FC5C4BAA
:1014E0004E4800271F805B4B4FF4804239461F80D7
:1014F00003F08AFB584BB8461F60C5E64FF0000862
:101500002AE74FF00008BFE65449554803F0DAFBDC
:10151000E2E74249C3F5706203F54453C81892B23A
:101520003F494FF48043FFF7F7FC00285AD180234E
:101530000093BBF800203A4938484FF48043FFF746
:10154000EBFC00283FF444AF464803F01DFCDBF8F9
:101550000000A842FFF641AF304B3149C0F5804250
:1015600018448023009392B24FF48043FFF7D4FCD9
:10157000002833D18023009329492848AAB24FF488
:101580008043FFF7C9FC28BBDFF8948080270097D1
:101590004FF48043802241460AA8FFF7BDFC002893
:1015A000F5D035E73B684FF47A72B3FBF2F33B605A
:1015B0006FE73B682C4A02FB03F33B6069E73B683B
:1015C0004FF47A7202FB03F33B6062E7254803F0B5
:1015D000DBFB10E7234803F0D7FBD5E7214803F0F6
:1015E000D3FBC7E71F4803F0CFFBA0E78022002111
:1015F0000AA803F009FB064BC7F580471F60AEE65B
:101600001A4803F0C1FBFFF72DFC00BF02000020C9
:10161000CC8D0020BA8D0020E8700310340D00201E
:10162000B44D002070710310240C0020344D0020B4
:1016300000000140C0710310DC710310884D0020D0
:10164000F0710310AC72031038720310547203105F
:101650001E0C0020200C0020300D00201C720310F6
:10166000247203103071031040420F0050710310B8
:10167000044803F089FBFFF7F5FB034803F084FB04
:10168000FFF7F0FB88710310A8710310002950D0F8
:101690002DE9F0410023054617460C464FF000485F
:1016A00055F82320013390451BB2B8BF9046A342A2
:1016B000F6DB0023A8F580261A464FF0010C55F8FA
:1016C0002300013300F50051B0421BB2A1EB06012B
:1016D00004DDC1F387310CFA01F10A44A342EEDBC9
:1016E000D3170020012109F0AFFDA8F578310022C1
:1016F00084460139904647F6FF7E08E07345A8BF4F
:10170000734627F81230013212B2A2420FDA55F8AE
:1017100022000B1A9B131133DBB286424CFA03F3FF
:10172000ECDB27F81280013212B2A242EFDBBDE8F7
:10173000F081704708B50346014803F0C3FAFEE79D
:1017400080730310002001F029B800BF012001F0D0
:1017500025B800BF10B5002000F0BEFC012000F04D
:10176000BBFC402000F0B8FC104B022218684FF47C
:10177000E13102F0A1FB041E0CDB00F0F3F858B9D4
:1017800000F090F8044660B9094B0A484322DA6039
:1017900000F01EFC204610BD074908486422FFF7F0
:1017A000C9FF054905486922FFF7C4FF080000206A
:1017B00000440040400D03009C730310DC730310D1
:1017C00000BF704710B50446044800F0FFF900B1AF
:1017D00010BD2046BDE8104000F0C4B900E0014053
:1017E0004FF0FF30704700BF4FF0FF30704700BF31
:1017F0004FF0FF30704700BF4FF0FF30704700BF21
:10180000F8B5E0B9002A1746054615DD0F4E0C461F
:1018100002E00135AF4210D0304602F0A1FBC1B268
:101820002170304602F09EFB224614F8013B0D2B3E
:10183000EFD10A231370681CF8BD3846F8BD02F0DA
:1018400067FE092303604FF0FF30F8BD002004401D
:10185000F8B5431E012B1CD8002A174617DD551E6C
:101860000F4E4C1E0D4404E0304602F07BFBAC42B0
:101870000DD014F8011F0A29F6D10D21304602F0CF
:1018800071FB2178304602F06DFBAC42F1D1384655
:10189000F8BD02F03DFE092303604FF0FF30F8BDB4
:1018A00000200440F8B50D4B1F68A7B100250C4C73
:1018B0002E46D4E9000100F03FFF204600F008FE6C
:1018C0000135002818BF6FF00706AF4204F10C0481
:1018D000EFD13046F8BD3E463046F8BD08740310DF
:1018E000E47303100B4B1B68834210B504460BD9FD
:1018F000094B04EB440403EB840253F824005168C1
:10190000BDE8104000F030BF044905482E22FFF723
:1019100011FFEDE708740310E4730310287403103B
:10192000547403100B4B1B68834210B504460BD94B
:10193000094B04EB440403EB840253F82400516880
:10194000BDE8104000F0F8BE044905483922FFF711
:10195000F1FEEDE708740310E4730310287403101C
:1019600054740310F8B5164B1F68FFB10024154DD1
:101970002646284600F0ACFD0134002818BF6FF061
:101980000706BC4205F10C05F3D10F4C206840B1AD
:10199000002F14BF3A460122002103F035F93046EA
:1019A000F8BD384602F0DEFD2060F1E7064C2668FF
:1019B0000EB13E46F3E7304602F0D4FD2060EEE77C
:1019C0000C74031010740310D08D00200E4B1B6894
:1019D000834210B5044611D90C4B04EB440203EBCF
:1019E000820153F82200496800F08CFE084B1B6806
:1019F0001B5D13B9B0FA80F0400910BD05490648D7
:101A00009022FFF797FEE7E70C74031010740310A1
:101A1000D08D002064740310987403101C4B1B6855
:101A20009A6810B49A601A691A615A6A42F0800280
:101A30005A625A6A1406FCD4DA6942F08002DA610A
:101A4000DA691206FCD45024DC62012202241A63F3
:101A5000D8621A621C631A6B9407FCD45122DA62B2
:101A60009A68D006FCD5DC6A0C70102004229860BD
:101A70001A639A685206FCD540229A609B685DF80A
:101A8000044B13F4FE4F14BF6FF0080000207047A2
:101A9000D48D0020164B1B689A689A601A691A61E7
:101AA0005A6A42F080025A625A6A1206FCD4DA6913
:101AB00042F08002DA61DA691206FCD45022DA625E
:101AC0001A6B42F001021A63D862D9621A6B42F0B3
:101AD00004021A639A685206FCD540229A609B68F9
:101AE00013F4FE4F14BF6FF008000020704700BFD2
:101AF000D48D00201A4B1B689A6810B49A601A693A
:101B00001A615A6A42F080025A625A6A1206FCD47A
:101B1000DA6942F08002DA61DA691406FCD45022F4
:101B2000DA621A6B0F2442F001021A630144DC628C
:101B300010F8012BDA628842FAD11A6B42F00402E3
:101B40001A639A685206FCD540229A609B685DF839
:101B5000044B13F4FE4F14BF6FF0080000207047D1
:101B6000D48D0020184B1B685BB300B5002883B0F0
:101B700014BF052204223A23022101A88DF8042073
:101B80008DF80530FFF7B6FF10B103B05DF804FB28
:101B900040211720FFF77EFF0028F6D142F2107097
:101BA00000F016FA01A91820FFF738FF0028ECD141
:101BB0009DF80430402B18BF6FF00A0003B05DF8A9
:101BC00004FB6FF004007047D48D002030B5174D32
:101BD0002A6883B01AB10024204603B030BD0168E2
:101BE000286001F00303032BF5D0012100F0E8FE8B
:101BF00004460028F0D10E49286800F02BFF01218F
:101C0000286800F033FF0121286800F02DFF2046EE
:101C10000DF10701FFF702FF04460028DCD19DF813
:101C20000730022BD7D06FF01004D5E7D48D0020F9
:101C3000A0860100474885464748804780B9474904
:101C4000474A484B9B1A03DD043BC858D050FBDC85
:101C50004549464A00209142BCBF41F8040BFAE7CF
:101C6000434880474348804743488047FFF7FEFF8B
:101C7000FEE7FEE7FEE7FEE7FEE7FEE7FEE7FEE73C
:101C8000FEE7FEE7FEE7FEE7FEE7FEE7FEE7FEE72C
:101C9000FEE7FEE7FEE7FEE7FEE7FEE7FEE7FEE71C
:101CA000FEE7FEE7FEE7FEE7FEE7FEE7FEE7FEE70C
:101CB000FEE7FEE7FEE7FEE7FEE7FEE7FEE7FEE7FC
:101CC000FEE7FEE7FEE7FEE7FEE7FEE7FEE7FEE7EC
:101CD000FEE7FEE7FEE7FEE7FEE7FEE7FEE7FEE7DC
:101CE000FEE7FEE7FEE7FEE7FEE7FEE7FEE7FEE7CC
:101CF000FEE7FEE7FEE7FEE7FEE7FEE7FEE7FEE7BC
:101D0000FEE7FEE7FEE7FEE7FEE7FEE7FEE7FEE7AB
:101D1000FEE7FEE7FEE7FEE7FEE7FEE7FEE7FEE79B
:101D2000FEE7FEE7FEE7FEE7FEE7FEE7FEE7FEE78B
:101D3000FEE7FEE7FEE7FEE7FEE7FEE7FEE7FEE77B
:101D4000FEE7FEE7FEE7FEE7FEE7FEE7FEE7FEE76B
:101D5000FEE7FEE700000220311E001008F005102B
:101D6000000000202C0A0020000C00201C960020FF
:101D7000391E00101D450010791100100B4A08B5DE
:101D80000346106828B10A4903448B4207D8136000
:101D900008BD08480649106003448B42F7D902F099
:101DA000B7FB0C2303604FF0FF3008BDD88D002037
:101DB00000F00120209600206FF01000704700BF57
:101DC0006FF01000704700BF4FF080439A6802F434
:101DD0006062B2F5206F20D010D8CAB1104B47F224
:101DE0003051B2F5C06F08BF0B464FF080420D492D
:101DF0009268C2F38212D3400B607047B2F5406F15
:101E000008D0074B0849B2F5606F08BF0B46ECE7F6
:101E1000064BEAE74FF40043E7E74FF4E103E4E75A
:101E200000E1F5051C960020C06878040087930344
:101E300000207047704700BF10B50B4C0B4BA360E0
:101E40000B4801F0D3F9D4F8883043F47003C4F898
:101E50008830BFF34F8FBFF36F8FFFF7B5FFFFF7EA
:101E6000E9FFFFF777FC10BD00ED00E00000001077
:101E700000A0024038B54FF0E02318499C691A6968
:101E800022F480320A601A69D20723D46FF07F44AB
:101E900005225C614FF080759C611A61104B114AFC
:101EA00019680023A0FB010109F01EFA0E4BB0FBDC
:101EB000F5F205FB120084421A6007D81A68013255
:101EC0001A602C44094B201A186038BD074B201AA1
:101ED000186038BD5D690135E0E700BFE08D002086
:101EE0001C96002040420F000C000020E48D0020D2
:101EF00010B50C4C0C4B22681960002A0FDC08B995
:101F0000002010BDFFF7B6FF2368002BF8DD4FF06F
:101F1000E0220020136943F00203136110BD6FF04B
:101F2000050010BD0C000020DC8D0020F8B5174C1A
:101F30002368002B1EDB26682EBB154B4FF0E025D7
:101F40001B68AA699A421ED8124F3B685BB16FF0BA
:101F50000F009847104B3E601A682A614FF0FF331C
:101F600023600020F8BD0C4A4FF0FF3312682A614D
:101F70002360F6E7074C2368002BF2D00020984737
:101F800000202060F8BD6FF00500F8BD0C000020B7
:101F9000E48D0020DC8D0020E08D002010B5094C80
:101FA000236823B16FF00F00984700232360064A8F
:101FB000064B10684FF0E0214FF0FF3208611A60C5
:101FC00010BD00BFDC8D0020E08D00200C00002043
:101FD00038B5184C2268002A29DC00B938BDFFF753
:101FE00049FF4FF0E02202E01369DB031BD42368B2
:101FF000002BF9DC104B1A684FF0E0218B699342FB
:10200000FCD80E4D2B6823B16FF00F0098470023CA
:102010002B600B4B4FF0E022196811614FF0FF333A
:102020000020236038BD2368013B2360DFE76FF0A9
:10203000050038BD0C000020E48D0020DC8D002060
:10204000E08D0020F8B50F4E0F4BB2689A4204465F
:102050000D4600F1100707D018460C494FF4F072F6
:1020600002F038FD0346B060002C43F8275008DB2F
:10207000074B6209012004F01F0400FA04F443F83E
:102080002240F8BD00ED00E0008E002000000010AE
:1020900000E100E03F2809D90E4A4038D168C0B2BB
:1020A000012303FA00F00843D06070471F284FF067
:1020B000804208D92038916CC0B2012303FA00F0A5
:1020C000084390647047516A012303FA00F0084303
:1020D00050627047000008403F280AD91049403834
:1020E000CB68C0B2012202FA00F023EA0000C86007
:1020F00070471F284FF0804109D920388B6CC0B23F
:10210000012202FA00F023EA0000886470474B6A5B
:10211000012202FA00F023EA00004862704700BF83
:102120000000084010B507280AD8DFE800F00C09C5
:10213000092333475B04BDE81040364800F0C8B9B6
:102140006FF0020010BD4FF080440021A36843F4FB
:102150008023A3604FF47A70FFF7CAFE03E0FFF715
:10216000E5FE063052D1A3685901F8D5FFF716FFF6
:10217000002010BD00214FF47A70FFF7B9FE4FF038
:10218000804403E0FFF7D2FE06303FD1A3689A00F7
:10219000ECD4F7E74FF080440021A36843F4002318
:1021A000A3604FF47A70FFF7A3FE03E0FFF7BEFED3
:1021B00006302BD1A3681B01F8D5D7E74FF0804438
:1021C0000021A36843F48013A3604FF47A70FFF7F3
:1021D0008FFE03E0FFF7AAFE063017D1A368D800F0
:1021E000C4D4F7E74FF080440021A36843F40033E0
:1021F000A3604FF47A70FFF77BFE03E0FFF796FED3
:10220000063003D1A3689B01B0D4F7E76FF0090053
:1022100010BD00BFA874031038B54FF080439D680F
:10222000072824D8DFE800F0262323333C4B5A0448
:102230005D4800F04DF9C8B94FF08042936843F40F
:102240006063936000214FF47A70FFF751FE4FF006
:10225000804403E0FFF76AFE06304ED1A3689B047A
:10226000F8D5FFF79BFEFFF7AFFD002038BD6FF0FC
:10227000020038BD4FF08044A16811F4802146D09F
:102280004FF08042936823F460639360DAE74FF085
:102290008042936823F4606343F4C0639360D1E7A2
:1022A0004FF08044A16811F4002169D04FF08042C2
:1022B000936823F4606343F400639360C2E74FF0D4
:1022C0008044A16811F4801147D04FF08042936898
:1022D00023F4606343F420639360B3E74FF08044DA
:1022E000A16811F4003125D04FF08042936823F4A7
:1022F000606343F440639360A4E7A36805F46065FA
:1023000023F460632B43A3606FF0090038BDA3681A
:1023100043F48023A3604FF47A70FFF7E9FD03E0F4
:10232000FFF704FE0630EFD1A3685801F8D5FFF798
:1023300035FEA5E7A36843F40033A3604FF47A7039
:10234000FFF7D6FD03E0FFF7F1FD0630DCD1A3680F
:102350009A01F8D5FFF722FEC6E7A36843F480137D
:10236000A3604FF47A70FFF7C3FD03E0FFF7DEFDD3
:102370000630C9D1A368D900F8D5FFF70FFEA4E74E
:10238000A36843F40023A3604FF47A70FFF7B0FD15
:1023900003E0FFF7CBFD0630B6D1A3681B01F8D5EB
:1023A000FFF7FCFD82E700BFA87403103F280AD99D
:1023B0004038114AC0B2012303FA00F090609368DC
:1023C0001842FCD170471F280BD92038C0B2012316
:1023D0004FF0804203FA00F05064536C1842FCD175
:1023E000704701234FF0804203FA00F050605368B9
:1023F0001842FCD1704700BF00000840014800F0BF
:1024000005B800BF0080024000F01EB808B50A4BB6
:1024100098420BD009490A487222FFF78BF9094B01
:102420004FF0FF31002243F8212008BD054B002169
:10243000002243F8212008BD008002409875031057
:10244000DC750310E08F00200F2870B516D800EB64
:1024500080000D4E8400335983B10C48012101F0F6
:10246000A5FF054668B933193051DB6807481D6080
:102470005A685A6001F0A8FF284670BD6FF0020547
:10248000FAE76FF00505F7E7E88F0020E48F0020FA
:10249000C10710B5044608D4A2070BD463070ED4B5
:1024A0002046BDE8104001F095BF0020FFF714FE64
:1024B000A207F3D50120FFF70FFE6307F0D54020F8
:1024C000FFF70AFE2046BDE8104001F083BF00BFC1
:1024D000F8B5894B05689D42044638D003F5805312
:1024E0009D4212D003F5EE2303F580639D423CD05C
:1024F00003F500739D423AD00020FFF7C9FF01F0B9
:10250000BFFF012808D10020F8BD0220FFF7C0FF5F
:1025100001F0B6FF0128F6D06268A17A284600F0E3
:1025200065F90028F0D1754B22689A4211D0626893
:10253000217A284600F07AF90028E5D1637A042B45
:1025400000F2D680DFE803F0554D3D351E00012036
:10255000D3E7237A012B00F0BD80022B54D0002B4F
:1025600000F0A0806FF01000F8BD0420C5E708203F
:10257000FFF78EFF01F084FF0128C4D0A37A002B5F
:10258000D1D1EFE72A6E636822EA03022A666A6EF7
:102590001A436A66D5F8B8201343C5F8B830237AD1
:1025A000002BB0D06268E17A2846BDE8F84000F020
:1025B0007BB92A6E63681A432A666A6E22EA0302AE
:1025C000E7E72B6E626823EA02032B666B6E134308
:1025D0006B66D5F8B83023EA0203C5F8B830237A21
:1025E000DEE72B6E626813432B666B6E23EA0203F1
:1025F000EEE72A6E616822EA01022A666B6E23EA20
:1026000001036B66237ACBE762683D484FEA420CD0
:102610001101066A0CF0020C01F0200141EA0C01E4
:10262000314301628168C2F3400242EA0C020A436C
:102630008260627A042A95D8DFE802F0271C031C26
:10264000030062682E48D100066A01F0100102F012
:10265000010C41EA0C0126EA0101016291005201DC
:1026600001F0040102F040020A43016A21EA020279
:10267000026295E722486268076AD10002F001060B
:1026800001F010013E433143E7E761681C488A00CE
:102690004901066A02F0040201F040010A43324394
:1026A00002627DE7626816484FEA420C1101066A31
:1026B0000CF0020C01F0200141EA0C0126EA0101B4
:1026C00001628168C2F3400242EA0C0221EA02027E
:1026D0008260AEE762680A484FEA420C1101066A5E
:1026E0000CF0020C01F0200141EA0C013143E7E754
:1026F0006FF00200F8BD00BF0080004000060840F7
:10270000006C00400A4A90420B4601D000F062B8CB
:10271000084A106A116A01EA831100EAC3000B0635
:10272000C0F3C00002D540F002007047704700BF00
:1027300000060840006C0040094A904201D000F0B9
:102740004DB8084810B4046ACA0001F001012143E1
:1027500002F0100319435DF8044B0162704700BF9B
:1027600000060840006C00400A4A904201D000F088
:1027700037B810B4084C0B46C900206A01F01002AB
:1027800003F00101114320EA010121625DF8044BCD
:10279000704700BF00060840006C004001F02CBEEE
:1027A000034A904201D000F01DB8024AD16170473F
:1027B0000006084000680040034B984201D000F03A
:1027C00013B8024BD8697047000608400068004003
:1027D00001F056BE406A0840704700BFC1617047B3
:1027E0000162704781647047006C704770B50546A0
:1027F0000C461646FFF7ECFF012814D05CB1012C03
:1028000002D06FF0020070BDD5F8C0203243002026
:10281000C5F8C02070BDD5F8C02022EA06022046C7
:10282000C5F8C02070BD002070BD00BF70B5044663
:102830000E461546FFF7CCFF01280AD0236B2B4329
:1028400023636560052E2CD8DFE806F00C14161DF6
:102850002405002070BDC4F888500020A567E566F7
:10286000A56070BD6561656000202567E567C4F8F7
:10287000885070BD2561F6E7C4F888500020E567F0
:102880002567A56070BDC4F888500020E567E5663F
:10289000A56070BDC4F888500020A5672567A560B5
:1028A00070BD6FF0020070BD70B504460D4616464F
:1028B000FFF78EFF012810D0032D37D8DFE805F091
:1028C0001B02290FD4F8B0303343C4F8B030D4F829
:1028D000B42022EA0606C4F8B460002070BDD4F823
:1028E000B0303343C4F8B030D4F8B4201643C4F841
:1028F000B460002070BDD4F8B03023EA0603C4F8F9
:10290000B030D4F8B42022EA0606C4F8B46000203F
:1029100070BDD4F8B03023EA0603C4F8B030D4F860
:10292000B4201643C4F8B460002070BDD4F8B030B1
:1029300023EA0603C4F8B030D4F8B43023EA06061C
:10294000C4F8B460C9E700BF0AB900F013B96FF06A
:1029500010007047174B984210B5044610D0164B24
:10296000984218D0154B984220D13820FFF792FB9F
:102970003420FFF71BFD2046BDE8104000F018B9D9
:102980000D20FFF787FB1020FFF710FD2046BDE864
:10299000104000F00DB91C20FFF77CFB2020FFF752
:1029A00005FD2046BDE8104000F002B96FF00100BF
:1029B00010BD00BF00D0014000E0014000F0014028
:1029C000C0B370B504460D461646FFF7C3FF1B4B58
:1029D0009C4212D01A4B9C421CD01A4B9C4226D1CE
:1029E0003820FFF779FB1848FFF772FD3246294679
:1029F0002046BDE8704000F03BB80D20FFF76CFBAF
:102A00001248FFF765FD324629462046BDE8704072
:102A100000F02EB81C20FFF75FFB0D48FFF758FDB4
:102A2000324629462046BDE8704000F021B86FF0DC
:102A3000010070BD4FF0FF30704700BF00D0014073
:102A400000E0014000F00140CC740310B4740310A6
:102A5000C074031000F002B900F060B900F07AB958
:102A600000F080B900F086B900F0F0B900F0FEB9CE
:102A70002DE9F041002871D03A4B9842884616461D
:102A8000044649D003F58053984243D0364FB842AC
:102A90000CBF02274FF0FF3710212046FFF7E2FF5F
:102AA0000546002833D1236843F001032360204604
:102AB000FFF7D4FF2046FFF7D3FF02212046FFF7A0
:102AC000D5FF06212046FFF7CFFFB8F1000F27D032
:102AD0002368244A43F002039442236039D0234BF5
:102AE0009C421BD0204884420CBF02244FF0FF348C
:102AF0001F4B03EB44140122626003EB47136FF09A
:102B00000101C3E9021100221A611A765A612846AE
:102B1000BDE8F0810127BFE70027BDE70124E7E713
:102B2000314642462046FFF70FFF0E4B9C420AD02B
:102B300003F580539C420ED00B498C420CBF4FF0E2
:102B400002084FF0FF380A4B03EB481100224A609D
:102B5000D3E72C46CCE74FF00108F4E74FF0FF3500
:102B6000D5E700BF00D0014000F0014000E0014087
:102B700028910020C0B1032A10D8B1F5806F10D27F
:102B800000EB820200237F29D36484BF4FF400430B
:102B9000D364D36C19430020D16470476FF01000E8
:102BA00070476FF0020070474FF0FF30704700BF72
:102BB00000284AD0F8B5264B9842044639D003F590
:102BC0008053984223D0234DA8420CBF02254FF0DA
:102BD000FF3500212160E1606161A3681E4EA360A2
:102BE000236923616F0106EB4515E1612022216213
:102BF00028466162A16202F007F82046FFF72EFF27
:102C00002046FFF72DFF2B7E1BB90020F8BD0125C4
:102C1000DFE7FFF7F3FBA86800280CDA3E44F06812
:102C20000028F2DBFFF7F0FB6FF00103F3600020F8
:102C3000F8BD0025CDE73E44FFF7E6FBF0686FF0F6
:102C400001030028AB60E0DBECE74FF0FF3070479A
:102C500000D0014000F001402891002000284FD012
:102C600010B4294AA1F574236FF4107423449342DD
:102C70001AD3264B99423ED8254B1B685B08B3FB01
:102C8000F1F14A0811F0010F02F1FF3408BF2246AA
:102C9000B2F5007F2FD274B3C4F3080444635DF827
:102CA000044B8263FFF7D8BE194B1A4A1B685B08B6
:102CB000B3FBF1F14FEA410CA2FB0C4CA2FB014229
:102CC0005208C90758BF02F1FF324FEA5C0C0F2AC5
:102CD0000CF1FF3C0FDCBCF10F0F0CDC12025FFAB1
:102CE0008CFC92B24CEA0202C26302680A4942F4C6
:102CF00000420260C3E76FF002005DF8044B7047CA
:102D00004FF0FF30704700BF009F240040E13300C8
:102D10001C960020ABAAAAAA801A060003681B040E
:102D20000CD5C26BC36BD0B20230C3F3072303448C
:102D3000074A10684008B0FBF3F07047436B806BA4
:102D4000C3F30803C0F3080003440233F0E700BFF5
:102D50001C960020C36943F08003C361C3691B064E
:102D6000FCD47047436A43F080034362436A1B0606
:102D7000FCD47047002865D0036843F001032DE9B7
:102D8000F04103600768036843F480630E4604461D
:102D900007F480670360002943D000252BE0FFF78C
:102DA00017F9236823F0800323600A20FFF710F946
:102DB000236813F400784FF00A002BD1FFF708F9CD
:102DC000236843F0800323600A20FFF701F923689A
:102DD0009A054FF00A001DD5FFF7FAF8236843F073
:102DE000400323600A20FFF7F3F82368DB0525D4AE
:102DF0000135AE4215D00A20FFF7EAF8236823F028
:102E0000400323600A20FFF7E3F82368D9054FF059
:102E10000A00C4D52368013543F0C003AE422360E5
:102E2000E9D16FF008001FB9236823F480632360A1
:102E3000236823F001032360BDE8F0814046002FA2
:102E4000F6D1F1E74FF0FF30704700BF8269D2B290
:102E50008A42034607D3C26922F4706242EA012122
:102E60000020D96170476FF0020070478269C2F399
:102E700007228A42034607D3426A22F4706242EA7A
:102E800001210020596270476FF00200704700BFB7
:102E900010B50E4C82B001462046019100F08EF82C
:102EA0003720FFF7F7F83320FFF780FA3720FFF7D6
:102EB00013F90748FFF70CFB0648FFF709FB0199D8
:102EC000204602B0BDE8104000F042B800000640C5
:102ED000D8740310E47403100146014800F082B86E
:102EE00000000640014800F025B900BF0000064080
:102EF000014800F025B900BF00000640014800F07D
:102F000025B900BF000006400146014800F024B981
:102F10000000064003460A460148194600F02AB957
:102F2000000006408446134602480A46614600F007
:102F300037B900BF00000640014800F049B900BFA2
:102F4000000006400146014800F04AB90000064072
:102F50000A6938B50C460346FAB1CA68EAB1A269F3
:102F600032B3154962780C60EAB91A6842F000720F
:102F70001A60E2781968920221F4806102F480629A
:102F80000A4320461A60FFF7A7FF054680B921894A
:102F90002078FFF7BFFF284638BD6269002ADED1DE
:102FA0004FF0FF35F7E7196841EA02321A60DCE7B3
:102FB0006FF00205EFE700BF8891002010B50446CE
:102FC000FF20FFF7BFFFFFF78DFFFFF797FFFFF72A
:102FD000B3FF0020206020632061236843F40023B6
:102FE000236010BDD1E90323F0B5002B66D08E69B4
:102FF000002E00F09B80046824F4404404600469BF
:1030000024F01F040461046924F478540461CD7A27
:103010008F798C78ADB3D0F810E005F1FF3C2EF03D
:103020001F0E0CF01F0C4CEA0E0CC0F810C087B33A
:10303000D0F810C0013F7F0207F478572CF4785C79
:1030400047EA0C0707610768A40327F44047A4B2C6
:103050003C4304608C7A0769E403A4B227F4004778
:103060003C43082D046119D84AB143B1002012F83D
:10307000014B03F8014B8C6901308442F7D80020E2
:10308000F0BDD0F810C02CF01F0CC0F810C0002FFD
:10309000CED1076927F478570761D4E7102D13D8EC
:1030A000002AECD0002BEAD00021013132F8020BCB
:1030B00023F8020B8E42F8D10020E1E74C69002C86
:1030C00095D14FF0FF30F0BD142D0ED8002AD6D088
:1030D000002BD4D0002452F8040B000343F8040B57
:1030E00088690134A042F6D8C9E7182D0ED8002A05
:1030F000C5D0002BC3D0002452F8040B000243F8C3
:10310000040B88690134A042F6D8B8E7202DB6D860
:10311000002AB4D0002BB2D0002052F8044B43F860
:10312000044B8C6901308442F7D8A8E76FF00200A5
:10313000F0BD00BF036823F480330360704700BF15
:10314000036843F400330360704700BF036823F44F
:1031500000330360704700BF4A1E072A034605D8A4
:10316000026842EA01610020196070476FF01000A8
:10317000704700BF0346006920F48070186118682A
:10318000890120F0C000C9B201431960196941EA00
:1031900002421A611A6942F4807200201A61704773
:1031A000022A0CD8094850F8220001FB00F0B3EBCA
:1031B000400F07D38000B3FBF0F3581E70476FF049
:1031C000020070476FF00300704700BFEC750310FA
:1031D000036843F48023036003685B03FCD47047F7
:1031E000436D23EA01014165704700BF00F000B85C
:1031F000D0F80031012223F00103C0F80031C0F8FB
:103200000027D0F80031DA03FBD5D0F8003143F0C5
:103210000103C0F80031D0F80031DB03FBD5704763
:103220004FF08042D36843F08003D360704700BF03
:10323000F0B5B24B984283B004460D46164631D0E5
:1032400003F5805398421FD0AD4B984200F0E380C5
:1032500003F58053984200F0E28003F5DB2303F589
:103260008063984200F09E8003F58063984200F0EE
:10327000DA80002900F00F81A249A3482422FEF73A
:1032800059FA4FF0FF3703E0002900F004810127CD
:10329000EB78023B042B00F22981DFE803F00C24D9
:1032A0001A080800002900F0F6800027F0E76FF008
:1032B000100003B0F0BD0020FEF734FF9349204614
:1032C00000F0A4F90122032F29D8DFE807F04357C3
:1032D0002F160620FEF726FF4FF40041204600F08F
:1032E00095F90322EFE70520FEF71CFF4FF4E101FB
:1032F000204600F08BF90222E5E708200192FFF753
:1033000055F81220FEF7E8FE019A46B1AB78022B81
:1033100012BF7F487F480192FFF7DAF8019A2946E9
:10332000204603B0BDE8F04000F056BA07200192F5
:10333000FFF73CF81120FEF7CFFE019A002EEED0E9
:10334000AB78022B12BF744874480192FFF7C0F8A3
:10335000019AE4E705200192FFF728F80F20FEF715
:10336000BBFE019A002EDAD0AB78022B12BF6C485C
:103370006C480192FFF7ACF8019AD0E70620019261
:10338000FFF714F81020FEF7A7FE019A002EC6D012
:10339000AB78022B12BF644864480192FFF798F89B
:1033A000019ABCE7002976D0CB78023B042B00F2CF
:1033B000938001A252F823F0AF32001003340010C2
:1033C00083340010CD330010AF3200100320FEF71D
:1033D000A9FE574847F2305100F018F9022255482B
:1033E0000192FFF775F84220FEF7E0FF4220FEF75A
:1033F00073FE019A2946204603B0BDE8F04000F074
:10340000EBB90520FEF78EFE49484FF4E10100F0CC
:10341000FDF80022E3E700293DD0022738E7002924
:1034200039D0032734E7002935D0CB78023B042B71
:1034300048D801A252F823F0AF320010B134001086
:10344000AF3200109D3400104D3400100520FEF7FF
:1034500069FE39484FF4612100F0D8F8012237485D
:103460000192FFF735F84320FEF7A0FF4320FEF757
:1034700033FE019A2946204603B0BDE8F04000F033
:10348000ABB90620FEF74EFE29484FF4004100F08C
:10349000BDF80122A3E74FF0FF300AE70320FEF753
:1034A00041FE254847F2305100F0B0F80222D6E73D
:1034B0000520FEF737FE20484FF4E10100F0A6F8A2
:1034C0000022CCE71E4B1C481968002249080192D3
:1034D00000F09CF8019AC2E7194B154819680022C0
:1034E0004908019200F092F8019A78E7144B1968A4
:1034F0002046490800F08AF80022E4E60000014076
:1035000000200140F87503103C76031000879303F8
:103510003875031044750310207503102C750310C3
:10352000F0740310FC740310087503101475031075
:10353000000C084050750310001008405C75031023
:103540001C96002000F0F4B900F02EBA00F058BA32
:1035500000F082BA00F0AEBA00F098BF00F0AEBF43
:1035600000F09EBF00F0A0BF00F016BB10B4244CCA
:10357000A0422ED0234B984216D003F58053984298
:1035800037D003F58053984236D003F5DB2303F59B
:10359000806398422AD004F5E224A0420CBF4FF089
:1035A000050C4FF0FF3C01E04FF0010C164C14F8F5
:1035B0000C405CB901290FD9022907D18169130494
:1035C00003F4403321F44032134383615DF8044B2C
:1035D00070474FF0000CE9E7846902F0030324F020
:1035E0000304234383610029E8D0EFE74FF0040C84
:1035F000DCE74FF0020CD9E74FF0030CD6E700BF31
:1036000000000140001001408C9100201C4B9842AA
:1036100010B50C4629D003F58053984219D003F514
:103620008053984225D003F58053984223D003F568
:10363000DB2303F58063984219D003F58063984239
:103640001BD010491048B722FEF774F84FF0FF3333
:1036500000E001230D4AD25C32B90D4A012002EB91
:10366000C30102F833004C6010BD0023F2E70423CD
:10367000F0E70223EEE70323ECE70523EAE700BFC8
:1036800000000140487603103C7603108C91002026
:103690009491002008B51B4B984226D003F5805327
:1036A000984219D003F58053984222D003F58053F5
:1036B000984220D003F5DB2303F58063984216D0AF
:1036C00003F58063984218D0C6220F490F48FEF7D1
:1036D00031F84FF0FF3200E001220D4B13F83210A9
:1036E00069B103EBC203586808BD0022F5E7042264
:1036F000F3E70222F1E70322EFE70522EDE76FF09F
:10370000060008BD00000140487603103C76031017
:10371000949100202D4B984270B504460D461AD066
:1037200003F58053984216D003F58053984212D087
:1037300003F5805398420ED003F5DB2303F5806335
:10374000984208D003F58063984204D0204921486C
:10375000D422FDF7EFFF002D37D0AB78022B236981
:103760000CBF4FF080414FF4804143EA01030BBF8F
:103770006FF0005C6FF4005C4FF080724FF4807269
:103780000CBF4FF48036012623610BBF4FF400209D
:10379000082010210021A3690342FCD06B78206926
:1037A0008B4003432361AB6820691B028B400343BA
:1037B00023612660E3681342FCD06B6803FA01F1D1
:1037C0006160A36903EA0C03A36170BD00000140BE
:1037D000487603103C760310524B984270B504466D
:1037E0000D4616461AD003F58053984216D003F5BD
:1037F0008053984212D003F5805398420ED003F5BF
:10380000DB2303F58063984208D003F58063984278
:1038100004D0454945483122FDF78CFF002D7ED06C
:10382000A978A3698A0714BF23F0004343F000433B
:10383000A361E36843F001133246E3602046FFF7DB
:1038400095FEAA782B78012A25D9022A11D122695E
:103850001B0403F4700322F47002134323616B789A
:10386000082B16D8DFE803F0111158585811585892
:1038700058006B78082B0CD8DFE803F00707070720
:10388000050705050500022A46D029462046FFF710
:1038900041FF002070BD216903F0F00021F0F0012C
:1038A0000143216102BB21691B0403F4700321F46D
:1038B00070010B4323616B78082BEAD801A151F802
:1038C00023F000BF8B3800108B3800108B380010AD
:1038D0008B3800108B3800108B3800108B3800109C
:1038E00087380010873800106B78082BD1D801A1D9
:1038F00051F823F08B3800108B3800108B380010F3
:1039000087380010873800108B3800108738001077
:10391000873800108B3800106FF0100070BD4FF02A
:10392000FF3070BD00000140487603103C76031064
:103930001A4B984210B504461BD003F580539842A9
:1039400017D003F58053984213D003F58053984263
:103950000FD003F5DB2303F58063984209D003F50C
:103960008063984205D00E490E484FF48272FDF7ED
:10397000E1FE2369580406D5236943F4004323611B
:10398000A3695907FCD523695A0006D5236943F07A
:1039900000432361A3695B03FCD510BD0000014017
:1039A000487603103C760310124B984210B504463B
:1039B0001BD003F58053984217D003F580539842EB
:1039C00013D003F5805398420FD003F5DB2303F5A2
:1039D0008063984209D003F58063984205D0064978
:1039E00006484FF48D72FDF7A5FE236923F080236E
:1039F000236110BD00000140487603103C7603109F
:103A0000124B984210B504461BD003F580539842E0
:103A100017D003F58053984213D003F58053984292
:103A20000FD003F5DB2303F58063984209D003F53B
:103A30008063984205D0064906484FF4BC72FDF7F2
:103A400079FEE36843F00113E36010BD000001401C
:103A5000487603103C76031038B5134B9842044661
:103A60000D461BD003F58053984217D003F58053C1
:103A7000984213D003F5805398420FD003F5DB230F
:103A800003F58063984209D003F58063984205D01E
:103A90000649074840F2C112FDF74CFE2560E36875
:103AA000DB05FCD538BD00BF00000140487603109F
:103AB0003C76031070B5324B984284B004460D46F4
:103AC0001BD003F58053984217D003F580539842DA
:103AD00013D003F5805398420FD003F5DB2303F591
:103AE0008063984209D003F58063984205D0254948
:103AF00025484FF4E772FDF71DFE002D3BD023490A
:103B0000234A0E687608A6FB055600232846314650
:103B100007F0EAFB1F4A03464FF0FF30A842B241CC
:103B20002BD2002215465B0843EAC17398424FEA44
:103B3000510175EB010602F10102F4D31201D1B279
:103B400000252046CDE902358DF804108DF805508A
:103B5000ADF80650FFF7F8FC2A4601A92046FFF70A
:103B600067FBA36943F000432046A361FFF7EEFC27
:103B70002046FFF7E7FC04B070BD0021E0E700BF7E
:103B800000000140487603103C7603101C9600208C
:103B900040420F003F420F002DE9F04F534E85B0D9
:103BA000B042CDE9012305460C461AD0504B98424D
:103BB00017D003F58053984213D003F580539842F1
:103BC0000FD003F5DB2303F58063984209D003F59A
:103BD0008063984205D0474947484FF4FB72FDF790
:103BE000A9FD28462E69FFF755FD051E60DB012360
:103BF000C6F3031603FA06F6F317A6FB046104FBEB
:103C0000031463014FEA461ABAEB060943EAD66386
:103C100063EB040803934FEA48284FEA49239B19B2
:103C200048EAD95844EB08089F014FEA881242EA53
:103C30009362FF1A62EB0808304ABF1982FB053213
:103C40004FEAE57B44EB0808CBEBA212D3173846CA
:103C5000414607F049FB79B3384641462A465B4660
:103C600007F042FB89B3039BBAEB060A63EB04013E
:103C7000890041EA99714FEA890919EB060944EB79
:103C80000101C90041EA59714FEAC9002A465B4661
:103C900007F02AFB21B32A465B463046214607F04F
:103CA00023FBF9B90323019A1060029A0D461370A1
:103CB000284605B0BDE8F08F019B0D461860029BB9
:103CC0002846197005B0BDE8F08F019B0D461860BD
:103CD000029B4FF0010228461A7005B0BDE8F08F34
:103CE0000223E0E76FF00305E2E700BF00000140B8
:103CF00000100140487603103C760310D34D62104B
:103D000008B5174B984210D0164B984215D0164B59
:103D100098421AD0154B98421FD14420FEF746FB1B
:103D20004420FEF7B7F9002008BD0B20FEF73EFB4C
:103D30000920FEF7AFF9002008BD0C20FEF736FB86
:103D40000A20FEF7A7F9002008BD1C20FEF72EFB75
:103D50002120FEF79FF9002008BD6FF0020008BD8A
:103D6000002004400030044000400440001408409B
:103D7000214B10B504469C42084629D003F58053D8
:103D80009C4225D003F580539C4221D003F5753326
:103D90009C4222D10523042A636121D12368B0F516
:103DA000166F43F4001323608CBF0023012363616B
:103DB0004FF480310246204600F066F9002806DD07
:103DC000236843F40043236023681B03FCD510BD24
:103DD000052363615AB1022A06D06FF0020010BDBC
:103DE000FBD822B1022AF8D14FF4E101E2E7034BFC
:103DF00019684908DEE700BF002004401C96002037
:103E000000F050B900F05EB900F070B9164B98425E
:103E100010B5044612D003F5805398420ED003F536
:103E2000805398420AD003F57533984203D1022992
:103E300007D0042910D06FF0020010BD39B102295B
:103E4000F9D10520FEF76EF902210028F5D12046B0
:103E5000BDE8104000F094B90620FEF763F9032195
:103E60000028F4D0E9E700BF0020044010B5044664
:103E700000F0DAF90F4B9C420DD003F580539C42C1
:103E800009D003F580539C4205D003F575339C425D
:103E900008D0FD2010BD0028FCD0022814BFF92056
:103EA000022010BD0228F5D0032814BFF9200420F9
:103EB00010BD00BF0020044070B504460E461546F4
:103EC000FFF71EFF10BB1C4B9C4227D01B4B9C4294
:103ED0001DD01B4B9C4228D01A4B9C4214D11A482F
:103EE000FEF7F6FA4420FEF7F7F829462046FFF7DA
:103EF0008DFF58B92046FFF7B9FF314602462046EC
:103F0000BDE8704000F050B86FF0020070BD0F487F
:103F1000FEF7DEFA0A20FEF7DFF8E6E70C48FEF7C8
:103F2000D7FA0920FEF7D8F8DFE70A48FEF7D0FAFB
:103F30002120FEF7D1F8D8E70020044000300440EB
:103F400000400440001408408C7503107475031081
:103F5000687503108075031000F06AB900F070B93D
:103F600000F008B800F012B800F074B900F076B9AB
:103F700000F07AB910B504462046FFF7F5FF002897
:103F8000FAD02046BDE81040FFF7E6BF38B504463A
:103F90000D462046FFF7EAFF0028FAD029462046C2
:103FA000BDE83840FFF7DABFF8B5324CA04205460D
:103FB0000F4616460FD0304B98420CD003F5805375
:103FC000984208D003F57533984204D02B492C4809
:103FD0008622FDF7AFFB01212846FFF7C9FF044603
:103FE00008B12046F8BD08212846FFF709FF04461E
:103FF0000028F6D101462846FFF706FF04460028B0
:10400000EFD101462846FFF7FDFE04460028E8D11F
:10401000324639462846FFF7ABFE002821DB154B18
:104020009D4220D003F580539D421ED003F580535E
:104030009D421CD003F575339D420CBF03234FF006
:10404000FF33104803EB430300EBC3024FF0FF3193
:10405000DB00C2E902110021C150516011745161AD
:10406000BFE70446BDE72346EBE70123E9E7022368
:10407000E7E700BF00200440003004408C760310C6
:10408000D4760310100000209142B1FBF2F304D368
:1040900002FB1311B1EB520F00D90133036110463B
:1040A000704700BF05390329024607D8036823F487
:1040B000406343EA81210020116070476FF00200E5
:1040C000704700BF61B1012906D10368002143F4A4
:1040D00080530360084670476FF00201084670473E
:1040E000036823F48053036008467047034604299D
:1040F00042D8DFE801F0111725330300026842F0CF
:1041000010021A601A6842F020021A601A6842F01F
:10411000400200201A607047026822F0100200205E
:104120001A607047026842F010021A601A6822F0A2
:1041300020021A601A6822F0400200201A607047BC
:10414000026842F010021A601A6822F020021A6017
:104150001A6842F0400200201A607047026842F07C
:1041600010021A601A6842F020021A601A6822F0DF
:10417000400200201A6070476FF00200704700BFD5
:10418000032938B50D46044630D8234B9C4236D01F
:1041900003F580539C4227D003F580539C4238D0CE
:1041A00003F575339C420CBF03234FF0FF331B4ACA
:1041B000D35CBBB9236813F4004F4FEA054523686D
:1041C0001FD023F400432360236805F4403523F413
:1041D00040331D432560236843F400432360236874
:1041E0001B03FCD5002038BD0123E0E70C490D4836
:1041F00040F23312FDF79EFA074B9C42C8D10023D0
:10420000D5E723F4403305F440351D4325600020F5
:1042100038BD0223CBE700BF00200440C49100203A
:104220008C760310047703100068C0F301407047D8
:104230004368DB0654BF006A6FF00C00704700BF94
:10424000436813F0800306BF016218466FF00B004D
:10425000704700BF4068C0F3032070474068C0F358
:104260000330C0F1080070474B1E072B024606D8EA
:10427000036823F00F0319430020116070476FF0AB
:104280000200704700B583B001900620FDF74AFF99
:104290000199034803B05DF804EB00F025B800BFB6
:1042A00000640040014800F035B800BF00640040E1
:1042B0000146014800F034B800640040014800F0B5
:1042C00041B800BF0064004000B583B084460B468F
:1042D00000924FF400416246024800F037F803B004
:1042E0005DF804FB00640040002301220361C2600A
:1042F000064A10B404691360054A21434FF0FF34A5
:104300000161136044605DF8044B7047C891002060
:10431000CC910020036943F080030361704700BF24
:1043200010B402690B78046922F0470203F0070316
:10433000134323434A685DF8044B03610121016084
:10434000426070470123C360704700BF006970B5C9
:10435000460906F00806C0F3C200032B40EA060037
:104360001DD8104E8C4656F823600F49864051F8F0
:104370002310BCFBF1F1A1FB025400233246284676
:10438000214606F0B1FF39B9B54274F1000303D3F9
:10439000049B1860084670BD6FF0030070BD6FF09D
:1043A000020070BD3C7703102C77031050E8003FEB
:1043B0003BB940E80013002BF8D1BFF35F8F1846DC
:1043C00070476FF005007047BFF35F8F00230360F5
:1043D000704700BF10B5064C217831B905484FF43D
:1043E000007200F011FC01232370002010BD00BFFB
:1043F000D1950020D0910020032870B5054625D81E
:10440000E0B9174E3046FEF7D7F90446014630466C
:10441000FEF7C6F98CB1134E134B06EBC51603EB32
:10442000C515E30703D52B680BB1306898476408BE
:1044300006F1040605F10405F3D170BD01280CD086
:104440000A4E0B4B022818BF1E46DBE709490A48F3
:104450004E22FDF76FF90026D4E7084ED2E700BFE1
:1044600000800040D0930020D0910020000408403C
:10447000000608404C77031094770310009000402A
:10448000014B1878704700BFD095002010B5044646
:10449000FFF75AF820460021BDE81040FFF758B852
:1044A0004FF0FF31FFF756B838B50546FFF756F81D
:1044B00004462846FFF750F8204638BD00B583B0C3
:1044C0000DF10303016801AAFFF74EF89DF80330D0
:1044D0000198022B0AD0032B0FD0012B03D00A4BDB
:1044E000A3FB0030800903B05DF804FB4FF47A733E
:1044F00003FB00F003B05DF804FB044B03FB00F08A
:1045000003B05DF804FB00BFD34D621040420F00C2
:10451000014B1868704700BF7000002070B50D4E49
:104520000D4D761BB61006D0002455F8043B01341F
:104530009847A642F9D1094E094D761B33F038FB56
:10454000B61006D0002455F8043B01349847A64223
:10455000F9D170BD200A0020200A0020280A00207E
:10456000200A0020024B0146186800F003B800BF83
:10457000700000202DE9F04F01F10B06162E83B0DC
:10458000044624D8102900F2BA8000F08FFB1026D0
:1045900018220220B54F3A44A2F1080153688B4219
:1045A00000F0BA805A68D96822F003021A449D6864
:1045B000E9608D60516841F001012046516003F1CE
:1045C000080500F079FB284603B0BDE8F08F36F00F
:1045D000070600F19480B14200F2918000F066FB82
:1045E000B6F5FC7FC0F09A81730A00F08F80042B2F
:1045F00000F26F81B30903F1390003F1380CC300F5
:104600009A4F3B44A3F108055B689D4206D10CE03C
:10461000002980F22781DB689D4206D05A6822F08B
:104620000302911B0F29F3DD60463D69DFF850C29C
:1046300065457CD06A6822F00302931B0F2B00F3C0
:104640007B81002BC7E904CC80F26C81B2F5007F3E
:1046500080F01A81D308796801334FEA521E012293
:1046600002FA0EF20A4357F833E0C5F808E007EB08
:10467000C3010839E9607A6047F83350CEF80C502E
:10468000831001219940914257D8114206D120F060
:1046900003004900114200F10400FAD007EBC00901
:1046A0004D468646D5F80C80454508D11DE1002BC6
:1046B00080F22481D8F80C80454500F01681D8F8A6
:1046C000042022F00302931B0F2BF0DD2046D8E9D3
:1046D000025408EB060146F00106C8F80460EC60DD
:1046E000A56043F00104C7E90411C1E902CC4C60A4
:1046F00048F8023000F0E0FA08F1080502E00C2367
:1047000023600025284603B0BDE8F08F4FF4007306
:1047100040204FF03F0C73E7D3689A4208BF023045
:104720007FF440AF3D69DFF858C1654582D17A68B2
:104730008310012199409142A7D9BD686B6823F08D
:1047400003094E4503D8A9EB06030F2B7ADCDFF8EB
:1047500034B1474BDBF800201B680132334405EBD2
:10476000090A00F0338103F580530F3323F47F6887
:1047700028F00F084146204600F00EFB411C02467F
:1047800000F0F380824500F2EE803A4B1968414414
:104790001960084600F04E81DBF8001001930131EA
:1047A0001BBFA2EB0A0A5044CBF80020186012F09D
:1047B000070B00F01781CBF108010A44CBF58051BB
:1047C00090440831A1EB0801C1F30B0A5146204681
:1047D000009200F0E1FA421CDDE9002300F04F8175
:1047E000801A00EB0A081968BA6048F001005144C9
:1047F000BD425060196000F02981B9F10F0F40F2FD
:1048000027816868A9F10C0C2CF0070C00F001005E
:1048100040EA0C0068604FF0050E05EB0C00BCF19F
:104820000F0FC0E901EE00F2328150681546124BBD
:104830001A688A4238BF1960104B1A688A4238BF1A
:10484000196094E0AA1943F0010346F001066E6076
:104850002046BA60536000F02FFA0835284603B0AE
:10486000BDE8F08FD9681A44A1E600BFA00400207B
:1048700004960020D4950020FC950020009600208E
:10488000A8040020A8080020B2F5206F4FEA5223A8
:1048900063D3142B00F2B78003F15C01C9005B33D2
:1048A00007EB010E7958AEF1080E8E4500F09180AD
:1048B0004B6823F00303934202D989688E45F7D1F0
:1048C000D1F80CE07A68C5E9021ECEF80850CD6038
:1048D000D6E6142B59D9542B00F29D80330B03F1EB
:1048E0006F0003F16E0CC3008AE60EF1010E1EF09C
:1048F000030F05F108057FF4D5AE51E0424445466B
:104900005368D8F80C1043F00103536055F8083F82
:104910002046D9608B6000F0CFF9F3E6F00806F18D
:10492000080237E62A442046536843F001035360E7
:10493000083500F0C1F9E5E6A919204646F0010660
:1049400043F001046E60C7E90411C1E902CC4C6078
:10495000AB5000F0B1F90835D4E6930903F1390101
:10496000C90038339CE7BD425FD0BD68686820F05D
:1049700003084645A8EB060302D80F2B3FF762AFAA
:10498000204600F099F90025BCE603F15C0003F134
:104990005B0CC30034E659F808394B4540F096806B
:1049A00010F0030F00F1FF30F5D17B6823EA01031B
:1049B0007B60490099423FF6C0AE19B9BDE6490097
:1049C0000EF1040E1942FAD0704667E603F11008A2
:1049D000D0E69A104FF001087B6808FA02F21A43F9
:1049E0007A6070E702EB08014942C1F30B0A5146B5
:1049F0002046009200F0D0F9431CDDE900237FF44B
:104A0000EFAEDA46EFE6542B25D8130B03F16F0116
:104A1000C9006E3344E7B3F5AA7F25D8F30B03F141
:104A2000780003F1770CC300EAE5294B186840448D
:104A30001860B1E6CAF30B0CBCF1000F7FF4ACAE0A
:104A4000BD68C84448F001006860F0E61546EEE62F
:104A50000123536094E7B3F5AA7F23D8D30B03F166
:104A60007801C90077331BE740F25452934223D8B0
:104A7000B30C03F17D0003F17C0CC300C0E5ABF186
:104A8000080BD844A8EB02084FF0000AABE605F18A
:104A900008012046009303F075FABD68009B686822
:104AA0001968C4E640F254518B420BD8930C03F1C1
:104AB0007D01C9007C33F3E64FF47E737F204FF015
:104AC0007E0C9DE54FF47E717E23E9E67B6870E7FE
:104AD000D4950020844641EA000313F003036DD10E
:104AE000403A41D351F8043B40F8043B51F8043BB1
:104AF00040F8043B51F8043B40F8043B51F8043BB8
:104B000040F8043B51F8043B40F8043B51F8043BA7
:104B100040F8043B51F8043B40F8043B51F8043B97
:104B200040F8043B51F8043B40F8043B51F8043B87
:104B300040F8043B51F8043B40F8043B51F8043B77
:104B400040F8043B51F8043B40F8043B51F8043B67
:104B500040F8043B51F8043B40F8043B51F8043B57
:104B600040F8043B403ABDD2303211D351F8043BF7
:104B700040F8043B51F8043B40F8043B51F8043B37
:104B800040F8043B51F8043B40F8043B103AEDD2A6
:104B90000C3205D351F8043B40F8043B043AF9D2F7
:104BA000043208D0D2071CBF11F8013B00F8013BCA
:104BB00001D30B8803806046704700BF082A13D3D7
:104BC0008B078DD010F003038AD0C3F10403D21AEF
:104BD000DB071CBF11F8013B00F8013B80D331F823
:104BE000023B20F8023B7BE7043AD9D3013A11F8A3
:104BF000013B00F8013BF9D20B7803704B7843700E
:104C00008B78837060467047830730B548D0541E58
:104C1000002A3FD0CAB2034601E0013C3AD303F870
:104C2000012B9D07F9D1032C2DD9CDB245EA0525DD
:104C30000F2C45EA054536D9A4F1100222F00F0CDD
:104C400003F1200EE6444FEA121C03F1100242E980
:104C5000045542E9025510327245F8D10CF10102B7
:104C600014F00C0F03EB021204F00F0C13D0ACF194
:104C7000040323F003030433134442F8045B934218
:104C8000FBD10CF003042CB1CAB21C4403F8012B75
:104C90009C42FBD130BD64461346002CF4D1F9E7A9
:104CA00003461446BFE71A46A446E0E7014803F06E
:104CB00013BC00BF0C960020014803F00FBC00BFDE
:104CC0000C9600200FB400B5074983B004AB086808
:104CD00053F8042B8168019300F0E2F803B05DF80B
:104CE00004EB04B0704700BF7000002070B50546AB
:104CF00088B008460C4600F063F8224EAA6B059077
:104D000001214318CDE9066104A80221049403930C
:104D1000AC680190029122B3636E13F0010FB4F9F5
:104D20000C309AB201D1980525D5910406D4626E53
:104D300043F4005322F40052A3816266284601AA7C
:104D4000214603F025FA636E002814BF4FF0FF35AB
:104D50000A25DA0702D4A3899B0506D5284608B0A0
:104D600070BD284603F016F8D6E7A06D03F0B6FB39
:104D7000284608B070BDA06D03F0AEFBB4F90C304E
:104D80009AB2D2E79C700310024B01461868FFF7F5
:104D9000ADBF00BF7000002038B5074D00220446AB
:104DA00008462A60FCF7EAFF431C00D038BD2B6898
:104DB000002BFBD0236038BD1896002000000000B7
:104DC00090F800F06DE9024520F007016FF0000C4B
:104DD00010F0070491F820F040F049804FF00004F3
:104DE0006FF00700D1E9002391F840F000F10800CE
:104DF00082FA4CF2A4FA8CF283FA4CF3A2FA8CF306
:104E00004BBBD1E9022382FA4CF200F10800A4FA6C
:104E10008CF283FA4CF3A2FA8CF3E3B9D1E90423C0
:104E200082FA4CF200F10800A4FA8CF283FA4CF3F7
:104E3000A2FA8CF37BB9D1E9062301F1200182FAB1
:104E40004CF200F10800A4FA8CF283FA4CF3A2FAB7
:104E50008CF3002BC6D0002A04BF04301A4612BAC5
:104E6000B2FA82F2FDE8024500EBD2007047D1E9C8
:104E7000002304F00305C4F100004FEAC50514F057
:104E8000040F91F840F00CFA05F562EA05021CBF28
:104E900063EA050362464FF00004A9E70000000042
:104EA0002DE9F04F2DED0A8BD3B01C4609EE101AF8
:104EB000914609EE900A054603F006FB0368179336
:104EC00018460D94FFF77CFF16901DB1AB6B002BBD
:104ED00000F0488219EE102A536EDB0740F147813B
:104EE000B2F90C309AB2960409D419EE101A43F4B0
:104EF00000538B819AB24B6E23F400534B66150717
:104F000040F1CC8019EE103A1B69002B00F0C680EE
:104F100002F01A030A2B00F0D2804D469FED9C7BD5
:104F20002B78002429AACDE92744CDE91944CDE9FD
:104F30001B448DED147B19EE909A129426929046A4
:104F400018940A94002B00F0B081AB4604E01BF8E3
:104F5000013F002B00F0CD80252BF8D1BBEB0506DF
:104F600040F0CB809BF80030002B00F09E810023A6
:104F70004FF0FF329BF801708DF87B3009930BF1F5
:104F8000010B08929A462B2420210BF1010BA7F16B
:104F900020035A2B00F20081DFE813F00A03FE0021
:104FA000FE000503FE00FE00FE006A00FE00FE009B
:104FB00076029E02FE008102A802FE00A3025B00B0
:104FC0005B005B005B005B005B005B005B005B0009
:104FD000FE00FE00FE00FE00FE00FE00FE008E0150
:104FE000FE001602ED018E018E018E01FE00FE0014
:104FF000FE00FE000003FE00FE004502FE00FE0073
:10500000FE002002FE00C202FE00FE009A07FE0023
:10501000FE00FE00FE00FE00FE00FE00FE008E010F
:10502000FE001602EF018E018E018E01E602EF01F5
:10503000E801FE00F302FE0086024702D402E80106
:10504000FE0020027D007607FE00FE007A07FE00CB
:105050007D00A7F1300300221BF8017B02EB8202E6
:1050600003EB4202A7F13003092BF5D909928EE731
:10507000484603F029FA43681B931846FFF7A0FE41
:105080001C900646484603F01FFA836819932021B6
:10509000002E40F0EA869BF8007076E719EE101AB1
:1050A00019EE900A19EE105A01F000FD002841F0A7
:1050B0002483AA8902F01A030A2B7FF42EAF19EE7B
:1050C000101AB1F90E30002BFFF627AF4B6ED9073F
:1050D00002D4920541F1568119EE101A19EE900A88
:1050E00023464A4653B0BDEC0A8BBDE8F04F01F0B1
:1050F0009DBCBBEB050600F0D880289B3344289369
:10510000279B0133072BC8E90056279305DC08F1DC
:1051100008080A9B33440A9324E719EE101A26AABA
:10512000484604F0A3F990B90DF1A408F1E719EE8F
:10513000101A26AA484604F099F9002800F0A68023
:105140000C9B23B119EE900A194602F01BFF19EED1
:10515000102A536ED80740F1FA8093895A0601F15C
:10516000D5820A9853B0BDEC0A8BBDE8F08FB2F936
:105170000C309F059AB23FF5B6AE19EE105AA86DE5
:1051800003F0AAF9B5F90C309AB2ACE6AFF300809F
:105190000000000000000000002F00F086800023C7
:1051A0008DF8E4708DF87B300122CDE90B23079256
:1051B000089310931393119339AD1AF002020E92D3
:1051C00002D0079A023207921AF084020F9205D198
:1051D000099A0799561A002E00F36883289C8BB110
:1051E000279B0DF17B0201330134C8F80020072B07
:1051F0004FF0010228942793C8F8042000F39F83FE
:1052000008F108080E9B83B1279B1FAA01330234C3
:10521000C8F80020072B4FF0020228942793C8F803
:10522000042000F3998308F108080F9B802B00F0FD
:105230006A82089B0B9A9E1A002E00F3AB821AF426
:10524000807F40F006820B9BC8F804301C44279BEB
:10525000C8F800500133072B2894279300F31983D3
:1052600008F108081AF0040F05D0099B079A9D1A47
:10527000002D00F38583DDE9092307998A42ACBF3D
:105280009B185B180A93002C7FF451AF00232793DF
:105290000C9B1BB10C99484602F074FE0DF1A4085A
:1052A0005D462B78002B7FF450AE289B002B41F0FD
:1052B0001882002327934AE70D9B073323F0070347
:1052C000B3EC027B8DED147BDDE914120D9322F01B
:1052D00000430AEE101A0AEE903A4FF0FF32B0EE99
:1052E0004A8AF0EE6A8AB74B51EC180B05F06EFF54
:1052F000002840F0E884B34B51EC180B4FF0FF321C
:1053000005F046FF002840F0DE84DDE914010022AC
:10531000002305F033FF002840F067879DF87B30BD
:10532000A94DAA4A2AF0800A0321472FC8BF154673
:1053300000220C9207910B910892109213921192F5
:10534000002B3FF43AAF079A0132079235E7938971
:1053500099053FF503AF19EE104A906D03F0BEF8C2
:10536000A389FBE6284602F015FDB3E59BF8007023
:105370004AF0200A09E64AF0100A1AF0200F0D9BA5
:1053800000F04084073323F007031A465B6852F8A5
:10539000084B0D921E46002BC0F24384089B01333C
:1053A00000F0BC822AF08003079354EA060340F021
:1053B000B782089B002B40F0B882DDF81CA00023C8
:1053C00008930B9352AD1FE10D9A002352F8041B72
:1053D0008DF87B308DF8E4100D92E5E60D9C54F8C5
:1053E000045B00268DF87B60002D00F09085089B03
:1053F0005A1C00F051861A463146284603F0E0F860
:105400000C90002801F02C810C9B0896591B0B91E5
:1054100021EAE1719DF87B300D9407910C9610966E
:10542000139611968CE74AF0100A1AF0200600F045
:10543000C9830D9B073323F007035E6853F8084BBD
:105440000D932AF480630793002300228DF87B20BC
:10545000089A551C00F0C080079921F0800A54EA90
:10546000060140F0B780002A40F00786002BA6D145
:10547000079B13F001030B9300F0148430238DF885
:1054800047310DF24715BFE00D9B53F8042B0992ED
:10549000002A80F2D583099A0D93524209929BF813
:1054A00000704AF0040A70E51AF0200F40F0D28430
:1054B0001AF0100F40F0E7851AF0400F40F0A9866F
:1054C0001AF4007F00F0DF850D9B0A9953F8042B36
:1054D0000D9311705D46E4E69BF800708DF87B40FB
:1054E00053E59BF800704AF0800A4EE55A4612F8E0
:1054F000017B2A2F01F06D82A7F13003092B93461F
:1055000098BF002201F2E9801BF8017B02EB8202C6
:1055100003EB4202A7F13003092BF5D9089236E5D7
:105520004AF010030793079B13F0200600F05983FD
:105530000D9B073323F007035E6853F8084B0D9368
:10554000012382E70D9B53F8044B0D9330234AF05F
:10555000020278278DF87C301D4B189307928DF846
:105560007D700026022370E79BF80070682F03BF50
:105570009BF801704AF4007A0BF1010B4AF0400AE3
:1055800003E59BF800706C2F03BF9BF801704AF095
:10559000200A0BF1010B4AF0100AF6E49BF80070A8
:1055A0004AF0080AF1E49BF800704AF0010AECE4C2
:1055B0009DF87B30002B7FF46EAD9BF800708DF86A
:1055C0007B10E2E4FFFFEF7FB8770310BC77031096
:1055D000C8770310CDF81CA0012B00F0A181022B8D
:1055E00052AD20D1189A04F00F032409D35C05F8BA
:1055F000013D44EA0674360954EA0603F3D152AB7E
:105600005B1BDDF81CA00B9308990B989DF87B3071
:1056100081424FF00002B8BF01460C9207911092F0
:10562000139211928CE604F00703E40844EA4674EE
:10563000F608303354EA06012A4605F8013DF2D156
:105640000799CC0700F1758252AB5B1B8A460B931E
:10565000DAE7652F40F3D780DDE91401002200234B
:1056600005F082FD002800F0C681279BC14AC8F8DA
:105670000020013301340122072B28942793C8F816
:10568000042000F3DE8408F10808209B129A93425C
:1056900080F2D182169B179A1C44C8E90023279BED
:1056A00028940133072B279300F3238408F108087B
:1056B000129B5D1E002D7FF7D5AD102D279B41F36A
:1056C0006781AD4F0E972246102619EE104A05E06D
:1056D00008F10808103D102D40F3C1840133103249
:1056E000072BC8E90076CDE92732F1DD26AA21464D
:1056F000484603F0BBFE00287FF422ADDDE92732E7
:105700000DF1A408E6E7099B079A9E1A002E7FF781
:1057100090AD102E279B41F33C8097490F95224670
:1057200019EE105A0E910C4604E0103E102E08F1AE
:10573000080819DD013310321021072BCDE927327B
:10574000C8F80040C8F80410EFDD26AA29464846EC
:105750000DF1A40803F08AFE00287FF4F1AC103E9E
:10576000102EDDE92732E5DC0F9D144601330E9A39
:10577000C8F800203444072BCDE92734C8F804606A
:1057800000F3A983089B0B9A9E1A002E08F10808C3
:105790007FF755AD102E279B40F30F8576480E906E
:1057A0004246214619EE108A044604E0103E102EAF
:1057B00002F1080216DD013310311020072BCDE96C
:1057C000273114605060F1DD26AA4146484603F0B7
:1057D0004DFE00287FF4B4AC103E102EDDE92731D9
:1057E00029AAE8DC90460C4601330E9AC8F800203E
:1057F0003444072BCDE92734C8F8046000F3D48182
:1058000008F108081BE5129B012B40F37381279ECA
:10581000C8F80050013601340123072E289427963A
:10582000C8F8043000F3968308F10808169B179A0D
:1058300001361C44072EC8E90023CDE9276400F394
:10584000978308F10808DDE914010022002305F020
:105850008BFC002840F07B81129B0136013B013517
:105860001C44072EC8F800502796C8F80430289426
:1058700000F3518108F108081A9BC8F8043001367A
:105880001C44072E22ABCDE92764C8F800307FF70F
:10589000E7AC19EE101A26AA484603F0E7FD0028E7
:1058A0007FF44EAC289C0DF1A408DBE4102EDDE95A
:1058B000273222DD1D95102419EE105A04E0103E07
:1058C000102E08F1080817DD01332C491032072B80
:1058D000C8E90014CDE92732F1DD26AA2946484659
:1058E0000DF1A40803F0C2FD00287FF429AC103E9E
:1058F000102EDDE92732E7DC1D9DC8F80460013376
:10590000B418072B1D4AC8F80020CDE9273400F34E
:105910007D839DF87B3008F1080860E4CDF81CA079
:105920000A2C76F1000380F0318330340123DDF856
:105930001CA08DF847410B930DF2471564E619EE54
:10594000101A26AA484603F091FD00287FF4F8AB10
:10595000289C0DF1A40855E419EE101A26AA484611
:1059600003F084FD00287FF4EBAB289C0DF1A40824
:105970005BE400BFF87703100C780310FC7703108A
:10598000102D279B20DD19EE107A102604E0103D23
:10599000102D08F1080817DD0133AC4A1034072B2D
:1059A000C8E90026CDE92734F1DD26AA3946484664
:1059B0000DF1A40803F05AFD00287FF4C1AB103D9F
:1059C000102DDDE92734E7DC0133A04AC8F8045084
:1059D0002C44072BCDE92734C8F800207FF74BACC7
:1059E00019EE101A26AA484603F040FD00287FF45D
:1059F000A7AB289C3FE4209A002A40F32B81DDE9E5
:105A000011739F42A8BF1F46002F0BDD279B013358
:105A10003C44072BC8E900572894279300F3D1850D
:105A200008F10808119E002FA8BFF61B002E00F3F6
:105A30004483119B1AF4806F2B440B9340F0DF8456
:105A4000209B129A934203DB1AF0010F00F0D283DD
:105A5000169A17991444C8E90012279A289401321B
:105A6000072A279200F3BB8508F10808129A0B99C0
:105A7000AE18761AD51AAE42A8BF2E46002E0DDDFE
:105A8000279BC8F8001001333444072BC8F8046082
:105A90002894279300F3068608F10808002EA8BF73
:105AA000AD1B002D7FF7DEAB102D279B40F37087D9
:105AB000674F0E972246102619EE104A05E008F1AE
:105AC0000808103D102D40F3CA8201331032072B15
:105AD000C8E90076CDE92732F1DD26AA21464846FD
